:100000000C946D2B0C949A2B0C949A2B0C949A2B89
:100010000C949A2B0C949A2B0C949A2B0D941D03F0
:100020000C949A2B0C949A2B0C949A2B0C949A2B3C
:100030000C949A2B0C949A2B0C949A2B0D948A184E
:100040000C949A2B0C949A2B0C949A2B0C949A2B1C
:100050000C949A2B0C949A2B0C949A2B0C949A2B0C
:100060000C949A2B0D949C040D94CB040C949A2B15
:100070000C949A2B0C949A2B0C949A2B0C949A2BEC
:100080000C949A2B0C949A2B0C949A2B0C949A2BDC
:100090000D9406050D9435050C949A2B0D94590971
:1000A0000C949A2B0D94B7180C949A2B0C949A2BB1
:1000B0000C949A2B0C949A2B0D94E4180C949A2B74
:1000C0000C949A2B0C949A2B0D94FF0F0D947005A1
:1000D0000D949F050C949A2B0C949A2B0C949A2BAC
:1000E0000C949A2BEE42F642FE4206430E43164310
:1000F0001E4326432E4336433E43464357434E4317
:10010000676A136A4E6A1C6A306A4E6A676A4E6A88
:10011000676A536A9676D576DD76BB76C376E576E2
:1001200026770A770377FC76117718771F77ED76B5
:10013000F57672773E772D774F77727772775577AE
:1001400072775B77F57AE47A177DF57AF57A177D21
:10015000177D007B2E8A268A3A8A3F8AD98A938A1B
:100160000D8B6D8AB58A098B2B8B3A8BB68B468BA0
:10017000C3A8D3A8DCA8E5A8F2A86BB8FEA86BB802
:100180006BB86BB807A910A919A92DCC48CC50CCD5
:1001900065CC7BCC91CCA6CCE1CC6ECD84CD42D2CB
:1001A00012D5A6D25BD274D2B7D2EAD212D5D8D3A6
:1001B000A3D312D53FD312D5D9D212D512D5F2D3AB
:1001C0000BD424D412D58DD258D38AD312D5B6D31A
:1001D000C8D212D571D312D53DD44ED45FD412D526
:1001E0000CD31DD32ED3FBD278D4A8D4C7D3C1D47B
:1001F000D2D4DFD5E2D5F7D5DDD738D654D62DD633
:1002000041D6DDD7DDD7DDD7DDD7DDD7DDD7DDD7EB
:10021000DDD7DDD7DDD7DDD7DDD7DDD7DDD7DDD73E
:10022000DDD767D6DDD7DDD7E5D6EAD6FCD90CDA3F
:1002300016DA20DA18DB31DA18DB18DBCDDA18DB56
:10024000D6DA12DADEDA18DBF1DAFADA09DBB62905
:10025000B629902990299029B828B828B8287C2A4E
:10026000AA29AA290E27DE2954293E286A28502ABD
:100270004C2A9E27E228DE2AAE2AA22A0C28B4277E
:10028000FA2A36285028CC2784282827742AFA27C7
:10029000E628402B0427DE26BE2AD82AB227442A85
:1002A00010271A2944287C27FE2AB8293C283827F9
:1002B000BE282229D827F0260027322BC829C82992
:1002C000E2270A29F626602B6828EC2A462BF62915
:1002D000D22AEC292429382A50290628B62AD62AD7
:1002E0002C27CA275C2A962A00286027C42AB82A05
:1002F0001C29342B3E272C29082B1029082B082BCE
:1003000048273A27082B082B0E2A7E271628082B69
:10031000082B082B082B082B082B082B082B082B45
:10032000082B082BEA28082B082B082B082B082B56
:10033000082B082B1E2B782A082BEA268029082B4D
:10034000E229C828082B082B082B082B7227EA293A
:100350003A28362AF42A5428662796270429FE26A6
:10036000162BD02AAC28CC2884273829122BBC295C
:10037000AA2A202ACE28582878288C2AC0287E2A03
:10038000EE2792274429902786291A2BCE27922AD6
:10039000EC28C02AF8262028602A3E2B602A3E2B13
:1003A000602A3E2B602A142B142B142B142B142B95
:1003B000142B142B142B142B46274229B228422924
:1003C000B2284229B2284229B2284229B2281E283E
:1003D0001E281E28AA27AA271E281E281E28AA274C
:1003E000AA27BC27BC27BC27A828A828BC27BC272D
:1003F000BC27A828A82806299C2806299C28062965
:100400009C2806299C280629902AFC26362B702732
:10041000FC26362B7027FC26362B70273C27062B14
:10042000062B3C273C27062B062B3C273C273C274A
:100430003C27036EDB363D9A9999993DABAAAA2ACF
:100440003E000000803F084AD73B3BCE016E84BC93
:10045000BFFDC12F3D6C74319ABD56833DDA3D001E
:10046000C77F11BED9E4BB4C3E916BAAAABE000067
:1004700000803F072C7AA5BA6CC590DA3B9365FCE7
:100480008BBC53F810FD3C5692834DBD879D3AB608
:100490003DCBC9BF5BBE73DA0FC93F05A84CCDB2D7
:1004A000D44EB93836A9020C50B9918688083CA6BA
:1004B000AAAA2ABE000000803F08000000BE9224C5
:1004C00049123EABAAAA2ABECDCCCC4C3E000000BD
:1004D00080BEABAAAAAA3E00000000BF00000080B8
:1004E0003F0000000000084178D3BB4387D1133D93
:1004F000190E3CC3BD4282AD2B3E68EC8276BED95C
:100500008FE1A93E4C80EFFFBE01C4FF7F3F00009A
:1005100000000002005241575F53454E5300000057
:1005200000000000000066000000000002014558C5
:10053000545F535441540000000000000000006864
:100540000000000000020252435F4348414E000099
:1005500000000000000000006A000000000002032C
:100560005241575F4354524C00000000000000000D
:10057000006C00000000000204504F534954494FE2
:100580004E0000000000000000006E0000000000AF
:10059000020545585452413100000000000000009F
:1005A000000000700000000000020645585452414F
:1005B0003200000000000000000000007200000097
:1005C000000002074558545241330000000000006B
:1005D00000000000007400000000000208504152BA
:1005E000414D5300000000000000000000007600B4
:1005F0000000000000FF00000000000000000000FC
:10060000000000000000000000000000000253593C
:100610005349445F53575F4D524556000000000058
:100620002F07000000000153595349445F53575F9F
:1006300054595045000000000131070000204102DC
:1006400053595349445F544849534D4156000000A3
:10065000007032070000803F0253595349445F4DF8
:100660005947435300000000000071340700007F29
:10067000430153455249414C315F424155440000CA
:10068000000000723607000064420154454C454D9D
:100690005F44454C415900000000000073370700DB
:1006A0000000000252544C5F414C54000000000016
:1006B0000000000000A038070080BB4401534F4EEB
:1006C00041525F454E41424C450000000000943AC3
:1006D000070000000001534F4E41525F54595045EE
:1006E000000000000000009A3B07000000000453D7
:1006F0004F4E41525F4741494E000000000000004C
:100700001E3C07CDCC4C3F0146535F424154545FE1
:10071000454E41424C45000000C14007000000002A
:100720000446535F424154545F564F4C5441474531
:100730000000974107000028410446535F4241549E
:10074000545F4D41480000000000002545070000AF
:1007500000000146535F4750535F454E41424C45B0
:1007600000000000C349070000803F0146535F4777
:1007700043535F454E41424C4500000000C64A07C6
:1007800000000000024750535F48444F505F474FFE
:100790004F4400000000234B0700004843014D4137
:1007A000475F454E41424C4500000000000000926A
:1007B0004D070000803F01464C4F575F454E414278
:1007C0004C45000000000000964E070000000001AC
:1007D00053555045525F53494D504C450000000061
:1007E000009B4F07000000000252544C5F414C54E4
:1007F0005F46494E414C00000000A3500700000036
:100800000001525353495F50494E00000000000060
:10081000000000185207000080BF04525353495F84
:1008200052414E47450000000000000027530700DA
:1008300000A0400157505F5941575F42454841561B
:10084000494F5200001A5707000000400157505FFF
:10085000544F54414C000000000000000000D35FE2
:1008600007000000000157505F494E444558000002
:1008700000000000000000D46007000000000243F8
:100880004952434C455F52414449555300000000D2
:10089000D761070000204104434952434C455F5251
:1008A0004154450000000000001D63070000A04106
:1008B0000352544C5F4C4F49545F54494D4500001E
:1008C0000000A2670700409C45024C414E445F5324
:1008D0005045454400000000000000D96B070000AF
:1008E00048420250494C4F545F56454C5A5F4D4167
:1008F000580000001C6D0700007A43025448525F04
:100900004D494E00000000000000000000B46F07D9
:1009100000000243025448525F4D4158000000005D
:10092000000000000000B5710700007A4401465342
:100930005F5448525F454E41424C4500000000B6AE
:100940007307000000000246535F5448525F56414F
:100950004C55450000000000B8740700C073440205
:100960005452494D5F5448524F54544C4500000076
:1009700000B976070000E143025448525F4D4944F4
:1009800000000000000000000000C278070000FA2C
:100990004301464C544D4F444531000000000000D7
:1009A000000000C87A070000000001464C544D4F7B
:1009B000444532000000000000000000C97B070031
:1009C00000000001464C544D4F44453300000000E8
:1009D0000000000000CA7C070000000001464C54E3
:1009E0004D4F444534000000000000000000CB7D66
:1009F000070000000001464C544D4F4445350000AF
:100A000000000000000000CC7E070000000001464E
:100A10004C544D4F444536000000000000000000DB
:100A2000CD7F07000000000153494D504C450000A8
:100A3000000000000000000000CE80070000000061
:100A4000024C4F475F4249544D41534B0000000058
:100A5000000014810700805F4401455343000000FB
:100A60000000000000000000000000BA8307000042
:100A700000000154554E4500000000000000000039
:100A800000000000BB8407000000000254554E45E2
:100A90005F4C4F57000000000000000000BD8707BA
:100AA000000000000254554E455F48494748000089
:100AB000000000000000BC850700007A4401465297
:100AC000414D4500000000000000000000000095BE
:100AD00089070000803F014348375F4F50540000B2
:100AE0000000000000000000988A070000000001DC
:100AF0004348385F4F5054000000000000000000E1
:100B0000001F8B07000000000141524D494E475F16
:100B1000434845434B0000000000208C0700008044
:100B20003F02414E474C455F4D41580000000000D8
:100B300000000022580700A08C4503414E474C4559
:100B40005F524154455F4D4158000000265A07004E
:100B5000A08C460152435F4645454C5F5250000011
:100B60000000000000285E070000C8420852433120
:100B70005F00000000000000000000000000AA8DDF
:100B8000070B3F0000085243325F000000000000E6
:100B900000000000000000ABAA070B3F0000085255
:100BA00043335F0000000000000000000000000070
:100BB000ACC7070B3F0000085243345F0000000041
:100BC000000000000000000000ADE4070B3F000043
:100BD000085243355F0000000000000000000000E4
:100BE0000000AE0108A13F0000085243365F00003C
:100BF0000000000000000000000000AF1F08A13F3F
:100C00000000085243375F000000000000000000B1
:100C100000000000B03D08A13F0000085243385FCB
:100C200000000000000000000000000000B15B08B0
:100C3000A13F000008524331305F00000000000077
:100C4000000000000000B27908A13F0000085243F4
:100C500031315F000000000000000000000000B320
:100C60009708A13F00000252435F5350454544009E
:100C70000000000000000000C0B5080000F54304BB
:100C80004143524F5F52505F50000000000000008F
:100C900000DDB70800009040044143524F5F5941C6
:100CA000575F5000000000000000F4BB08000090F7
:100CB00040044143524F5F42414C5F524F4C4C0005
:100CC000000000F2BF080000803F044143524F5F24
:100CD00042414C5F5049544348000000F3C30800B0
:100CE00000803F014143524F5F545241494E4552AB
:100CF00000000000001BC7080000004008524154DB
:100D0000455F524C4C5F0000000000000000DFC84F
:100D1000088E3E000008524154455F5049545F0020
:100D200000000000000000E0E2088E3E00000852D3
:100D30004154455F5941575F00000000000000002A
:100D4000E1FC088E3E0000084C4F495445525F4C70
:100D500041545F000000000000E716098E3E0000CD
:100D6000084C4F495445525F4C4F4E5F0000000005
:100D70000000E830098E3E0000085448525F52419E
:100D800054455F0000000000000000EC4A098E3E60
:100D90000000085448525F414343454C5F00000047
:100DA00000000000F164098E3E0000084F465F52CB
:100DB0004C4C5F00000000000000000000ED7E09C8
:100DC0008E3E0000084F465F5049545F000000000F
:100DD000000000000000EE98098E3E000008535409
:100DE000425F524C4C5F000000000000000000E237
:100DF000CE092A3E0000085354425F5049545F0018
:100E00000000000000000000E3DC092A3E000008AA
:100E10005354425F5941575F00000000000000003A
:100E200000E4EA092A3E0000085448525F414C544D
:100E30005F000000000000000000EBF8092A3E00FF
:100E40000008484C445F4C41545F00000000000023
:100E5000000000E5B2092A3E000008484C445F4CFF
:100E60004F4E5F000000000000000000E6C0092AAD
:100E70003E00000852454C41595F00000000000050
:100E800000000000000D060A9440000008434F4D8A
:100E9000504153535F000000000000000000930A1F
:100EA0000A9F38000008494E535F00000000000010
:100EB0000000000000000003F20A293A000008497F
:100EC0004E41565F000000000000000000000000DE
:100ED000646E0BD34200000857504E41565F00002D
:100EE00000000000000000000065640C1E430000CC
:100EF000085352305F0000000000000000000000B6
:100F000000006E450D13050000085352315F0000CC
:100F100000000000000000000000006FE20D13055B
:100F2000000008414852535F00000000000000002C
:100F3000000000009F7F0E173D0000084D4E545FDB
:100F400000000000000000000000000000A61110DA
:100F50001141000008424154545F000000000000AD
:100F6000000000000000247C10944C000008425255
:100F7000445F000000000000000000000000000FBF
:100F8000A7105C4D000008474E445F0000000000C1
:100F900000000000000000000BA8103C3500000815
:100FA00053434845445F000000000000000000007B
:100FB000000C2D119D4B000008475053474C4954DD
:100FC00043485F0000000000000046421134330037
:100FD00000084D4F545F00000000000000000000BA
:100FE0000000005A6211EC3F00000852434D41508E
:100FF0005F0000000000000000000000C72A121778
:101000004C00000000000000000000000000000094
:101010000000000000000000000000004C6F6700AE
:1010200064756D7000000000000000000000765F35
:1010300065726173650000000000000000000C7A1A
:10104000656E61626C650000000000000000405E9B
:1010500064697361626C6500000000000000405E1E
:10106000736574757000616363656C000000000057
:1010700000000000BE5D636F6D706173730000005F
:10108000000000004C5D636F6D706173736D6F7471
:101090000000000024946572617365000000000088
:1010A00000000000E9406D6F6465730000000000FF
:1010B0000000000066926F7074666C6F770000002D
:1010C000000000001B3F726164696F0000000000B7
:1010D000000000002F9172616E6765000000000043
:1010E00000000000F7557265736574000000000091
:1010F00000000000735973657400000000000000D8
:1011000000000000E55773686F77000000000000E2
:10111000000000000559736F6E617200000000004E
:1011200000000000745741726475436F70746572FB
:101130002056332E312E32006C6F67730000000092
:101140000000000000006E577365747570000000A9
:101150000000000000000657746573740000000072
:1011600000000000000000577265626F6F7400009D
:10117000000000000000354268656C70000000004F
:101180000000000000001642746573740062617212
:101190006F000000000000000000007B79636F6DAD
:1011A0007061737300000000000000B85167707335
:1011B00000000000000000000000000B4F696E738B
:1011C0000000000000000000000000B94D6C6F67D7
:1011D00067696E6700000000000000A14D6D6F742C
:1011E0006F72730000000000000000C4906D6F7407
:1011F0006F7273796E630000000000F88E6F707478
:10120000666C6F7700000000000000F04370776D9F
:101210000000000000000000000000A28D72616468
:10122000696F000000000000000000278D72656CEF
:101230006179000000000000000000BC44736F6E84
:101240006172000000000000000000F24352656C73
:101250006179206F66660A0052656C6179206F6E55
:101260000A0048697420456E74657220746F2065A9
:101270007869742E0A0A00494E2020313A202564EC
:1012800009323A20256409333A20256409343A208A
:10129000256409353A20256409363A202564093742
:1012A0003A2025640A00494E3A20313A2025640943
:1012B000323A20256409333A20256409343A20253E
:1012C0006409353A20256409363A20256409373AFD
:1012D00020256409383A2025640A000A546573748D
:1012E00020636F6D706C6574650A000A4D6F746FD2
:1012F00072732073746F70706564000A5370696E46
:10130000206D6F746F72732061743A2564000A5403
:1013100068723A2564007468726F74746C65206E2C
:101320006F74207A65726F0A005468697320736560
:101330006E64732073756464656E206F7574707568
:10134000747320746F20746865206D6F746F72738E
:10135000206261736564206F6E2074686520706917
:101360006C6F742773207468726F74746C6520746A
:101370006F207465737420666F7220455343206C30
:101380006F7373206F662073796E632E204D6F74B8
:101390006F72732077696C6C207370696E20736F45
:1013A000206D6F756E742070726F70732075702D64
:1013B000736964652D646F776E210A202020486F61
:1013C0006C64207468726F74746C65206C6F772C19
:1013D000207468656E207261697365207468726F2D
:1013E00074746C6520737469636B20746F2064651A
:1013F0007369726564206C6576656C20616E64202B
:10140000707265737320412E20204D6F746F72735C
:101410002077696C6C207370696E20666F72203261
:101420002073656320616E64207468656E20726548
:101430007475726E20746F206C6F772E0A5072650F
:10144000737320616E79206B657920746F206578E5
:1014500069742E0A00726164696F206E6F74206374
:10146000616C696272617465640A0045534320438C
:10147000616C6962726174696F6E20616374697610
:10148000653A2070617373696E67207468726F7457
:10149000746C65207468726F75676820746F20457E
:1014A0005343732E0A00456E746572696E6720455A
:1014B00053432043616C6962726174696F6E3A20B4
:1014C000706C65617365207265737461727420411C
:1014D000504D2E0A00436F6E6E6563742062617416
:1014E0007465727920666F72207468697320746500
:1014F00073742E0A4D6F746F72732077696C6C2051
:101500007370696E206279206672616D6520706FFC
:10151000736974696F6E206F726465722E0A467209
:101520006F6E74202826207269676874206F6620A9
:1015300063656E7465726C696E6529206D6F746F7A
:10154000722066697273742C207468656E20696EEF
:1015500020636C6F636B77697365206F726465726B
:101560002061726F756E64206672616D652E0A521D
:10157000656D656D62657220746F20646973636F59
:101580006E6E656374206261747465727920616641
:10159000746572207468697320746573742E0A41CF
:1015A0006E79206B657920746F20657869742E0AD6
:1015B0000054657374696E672064617461666C6160
:1015C0007368206C6F6767696E6700612025372E2E
:1015D00034662025372E34662025372E3466206762
:1015E0002025372E34662025372E34662025372EC9
:1015F000346620742025372E3466200A002E2E2EC5
:10160000646F6E650A00494E530A002E002C20417B
:101610006C743A20256C646D2C2023736174733ACA
:101620002025640A002C204C6F6E20004C61743A17
:101630002000736176696E67206F666673657473E8
:1016400000636F6D70617373206E6F7420686561E5
:101650006C7468790048656164696E673A20256C2E
:10166000642C2058595A3A20252E30662C20252EDD
:1016700030662C20252E30662C0958595A6F666624
:101680003A2025362E32662C2025362E32662C2026
:1016900025362E32660A00436F6D706173732069C0
:1016A0006E697469616C69736174696F6E206661DB
:1016B000696C65642100436F6D706173733A20003B
:1016C00061626C65640A0064697300656E000A43B8
:1016D0006F6D70205665633A2025342E32662C20BB
:1016E00025342E32662C2025342E32660A004375AE
:1016F0007272656E74005468726F74746C65004F1A
:1017000066660A004D6F746F7220436F6D703A20E9
:10171000004D6167206F66663A2025342E34662CB2
:101720002025342E34662C2025342E34660A004DB4
:101730006167204465633A2025342E34660A0043ED
:101740006F6D706173730A002D00416C743A20252F
:10175000302E32666D2C205261773A202566205457
:10176000656D70657261747572653A20252E3166FB
:101770000A006E6F74206865616C7468790062613C
:10178000726F6D657465722063616C6962726174F9
:10179000696F6E20636F6D706C6574650043616C7A
:1017A0006962726174696E67206261726F6D6574DF
:1017B000657200436F6D6D616E64733A0A20206C30
:1017C0006F67730A202073657475700A2020746532
:1017D00073740A20207265626F6F740A0A000A200F
:1017E000547970652027726164696F27206E6F7766
:1017F0002E0A0A000A215761726E696E672C2072E8
:101800006164696F206E6F7420636F6E66696775BF
:1018100072656421005365747570204D6F64650AAC
:101820000A0A000A4F703A5B6F6E2C206F66662CB6
:1018300020302D335D0A006F6666006F6E005479AC
:1018400070653A2025642028303D584C2C20313DCD
:101850004C562C20323D584C4C2C20333D48524C99
:10186000562900536F6E61720A00506172616D6596
:10187000746572206E6F7420666F756E643A2027EF
:101880002573270A004657205665723A2025640AB8
:1018900000526164696F0A004348383A2025642089
:1018A0007C2025640A004348373A202564207C20A8
:1018B00025640A004348363A202564207C202564AC
:1018C0000A004348353A202564207C2025640A001C
:1018D0004348343A202564207C2025640A0043488C
:1018E000333A202564207C2025640A004348323A9C
:1018F000202564207C2025640A004348313A2025B5
:1019000064207C2025640A00517561642066726140
:101910006D650A004672616D650A00766F6C7473BE
:1019200020616E642063757200766F6C7473000AB8
:1019300042617474204D6F6E3A0A00466C696768A4
:1019400074206D6F6465730A004F46460A004F4E5F
:101950000A002C090953696D706C653A2000506FBC
:10196000732025643A09004D6F64652825752900A8
:1019700053504F5254004452494654004F465F4C16
:101980004F49544552004C414E4400504F53495426
:10199000494F4E00434952434C450052544C004C71
:1019A0004F49544552004755494445440041555418
:1019B0004F00414C545F484F4C44004143524F004C
:1019C00053544142494C495A4500494E530A004735
:1019D0005F6F66663A2025342E32662C2025342E21
:1019E00032662C2025342E32660A00415F6F66660F
:1019F0003A2025342E32662C2025342E32662C20B7
:101A000025342E32660A415F7363616C653A202586
:101A1000342E32662C2025342E32662C2025342E8E
:101A200032660A0043616E6E6F74207365742070B5
:101A30006172616D65746572206F6620747970657E
:101A40002025642E0A0056616C7565206F75742020
:101A50006F662072616E676520666F7220747970A0
:101A60006520494E5431360A0056616C7565206F09
:101A70007574206F662072616E676520666F7220D4
:101A80007479706520494E54380A00506172616D56
:101A9000206E6F7420666F756E643A2025730A009D
:101AA000496E76616C696420636F6D6D616E642E42
:101AB0002055736167653A20736574203C6E616DD3
:101AC000653E203C76616C75653E0A000A5265628F
:101AD0006F6F7420626F617264000A275927203D7E
:101AE00020666163746F72792072657365742C204F
:101AF000616E79206F74686572206B657920746FF0
:101B00002061626F72743A0A000A434820362052FC
:101B1000616E6765732061726520646976696465CA
:101B20006420627920313030303A205B6C6F772C42
:101B300020686967685D0A002025642C204C6F7757
:101B40003A25312E34662C20486967683A25312EB3
:101B500034660A000A54554E453A0A000A4D6F761B
:101B60006520616C6C20636F6E74726F6C7320748F
:101B70006F2065787472656D65732E20456E74658F
:101B80007220746F20736176653A20000A0A5261F0
:101B900064696F2053657475703A000A5361766505
:101BA000640A000A4D6F6465207377697463682066
:101BB000746F20656469742C2061696C65726F6E46
:101BC0003A2073656C656374206D6F6465732C20B7
:101BD0007275646465723A2053696D706C65206F2C
:101BE0006E2F6F66660A00646F6E650A000A4572A2
:101BF0006173696E6720454550524F4D0A0046613A
:101C0000696C65642120436F6D70656E73617469E2
:101C10006F6E2064697361626C65642E2020446974
:101C20006420796F7520666F7267657420746F2009
:101C3000726169736520746865207468726F74746A
:101C40006C65206869676820656E6F7567683F001E
:101C50000A496E746572666572656E6365206174AB
:101C60002066756C6C207468726F74746C65206982
:101C7000732025642525206F66206D6167206669C5
:101C8000656C640A0A00636865636B20636F6D703E
:101C90006173730A007468726F74746C65206E6F80
:101CA00074207A65726F0A005448524F54544C4560
:101CB0000A0043555252454E540A00546869732035
:101CC0007265636F7264732074686520696D7061FA
:101CD0006374206F6E2074686520636F6D7061732C
:101CE00073206F662072756E6E696E67207468650A
:101CF000206D6F746F72732E20204D6F746F72732E
:101D00002077696C6C207370696E210A486F6C646F
:101D1000207468726F74746C65206C6F772C2074FB
:101D200068656E20726169736520746F206D6964E7
:101D300020666F722035207365632C207468656E91
:101D400020717569636B6C79206261636B20746FBD
:101D5000206C6F772E0A507265737320616E792044
:101D60006B657920746F20657869742E0A0A6D6539
:101D700061737572696E6720636F6D706173732034
:101D800076732000636F6D70617373206469736193
:101D9000626C65640A00726164696F206E6F742002
:101DA00063616C696272617465640A00434F4D50EF
:101DB00041535320494E4954204552524F52004CF2
:101DC0006F77204261747465727921007468723A89
:101DD0002564206375723A25342E3266206D6F7447
:101DE00020783A25342E316620793A25342E316612
:101DF000207A3A25342E31662020636F6D7020786A
:101E00003A25342E326620793A25342E3266207AED
:101E10003A25342E32660A000A4F703A5B6F6E2CF8
:101E20006F66665D0A006F6666006F6E00496E69D8
:101E30007469616C6973696E67206779726F73008A
:101E4000656E61626C650043414D45524100434FF0
:101E50004D50415353004F5054464C4F570052433E
:101E60004F55540043555252454E5400434D440083
:101E7000494D55005243494E004E54554E0043546F
:101E8000554E00504D00475053004154544954554D
:101E900044455F4D45440041545449545544455FC1
:101EA0004641535400616C6C006D697373696E67D1
:101EB000206C6F6720747970650A004C6F6720652D
:101EC0007261736520636F6D706C6574650A00459F
:101ED000726173696E67206C6F67730A0062616478
:101EE000206C6F67206E756D6265720A0064756D97
:101EF00070696E6720616C6C0A0041504D203200A1
:101F00000A41726475436F707465722056332E31C6
:101F10002E320A467265652052414D3A2025750AD7
:101F2000002043414D4552410020434F4D50415305
:101F30005300204F5054464C4F57002052434F55AA
:101F400054002043555252454E540020434D440006
:101F500020494D5500205243494E00204E54554EC5
:101F600000204354554E0020504D00204750530050
:101F70002041545449545544455F4D454400204147
:101F8000545449545544455F46415354006E6F6E56
:101F900065006C6F677320656E61626C65643A20E2
:101FA0000043726173683A2044697361726D696EAF
:101FB00067004175746F54756E653A204661696CAF
:101FC0006564004175746F54756E653A205375638E
:101FD00063657373004175746F54756E653A205371
:101FE00074617274656400666C6967687420706CF3
:101FF000616E20726563656976656400666C696709
:10200000687420706C616E207570646174652072F4
:10201000656A656374656400556E6B6E6F776E20DC
:10202000706172616D6574657220252E31367300A2
:10203000556E6B6E6F776E20706172616D65746541
:102040007220696E6465782025640041726475436E
:102050006F707465722056332E312E3200636F6DAF
:102060006D616E642072656365697665643A20000F
:1020700050726541726D3A204143524F5F42414C6C
:102080005F524F4C4C2F50495443480050726541A9
:10209000726D3A20436865636B20414E474C455F43
:1020A0004D41580050726541726D3A204368656336
:1020B0006B2046535F5448525F56414C5545005083
:1020C000726541726D3A2043683726436838204F65
:1020D00070742063616E6E6F742062652073616D31
:1020E000650050726541726D3A20436865636B20EC
:1020F000426F61726420566F6C7461676500507244
:102100006541726D3A20494E53206E6F74206865A8
:10211000616C7468790050726541726D3A20494E65
:1021200053206E6F742063616C69627261746564C0
:102130000050726541726D3A20436865636B206D93
:102140006167206669656C640050726541726D3A22
:1021500020436F6D70617373206F6666736574736F
:1021600020746F6F20686967680050726541726DF6
:102170003A20436F6D70617373206E6F74206361DA
:102180006C696272617465640050726541726D3A87
:1021900020436F6D70617373206E6F74206865618A
:1021A0006C7468790050726541726D3A20416C74AC
:1021B000206469737061726974790050726541724C
:1021C0006D3A204261726F206E6F74206865616C99
:1021D0007468790050726541726D3A205243206EE6
:1021E0006F742063616C696272617465640050721F
:1021F0006541726D3A20486967682047505320480E
:10220000444F500050726541726D3A204261642023
:1022100047505320506F730041726D3A20536166EE
:10222000657479205377697463680041726D3A2050
:102230004C65616E696E670041726D3A2054687238
:102240002062656C6F772046530041726D3A2041E1
:102250006C7420646973706172697479004172648E
:1022600075436F707465722056332E312E320047DD
:10227000524F554E442053544152540016A202006E
:10228000C2010DDE0200840320DD010090012598CB
:102290000A00D0021CDB0A003200F2B90A000A0070
:1022A00030D90A008C005C560A00E80317D50A00F2
:1022B0002003A2D121005A00225D0200A401E239CC
:1022C0000200FA0005D102006400F6CF6400A40108
:1022D000147A0A001400E3B902002602D0786400E0
:1022E0009600BD780200D00256810200B603F2CFFC
:1022F0000200C201D9CF0A002C01C8CF0200DC00C5
:10230000BD46E803C800CB590A003200504552468A
:102310003A2025752F257520256C750A00526561B8
:102320006368656420436F6D6D616E642023256969
:10233000005472696D207361766564004C6F73742C
:102340002047505321008059464D54000042426EB0
:102350004E5A000000000000000000000054797098
:10236000652C4C656E6774682C4E616D652C466FEC
:10237000726D6174000000000000000000000000A9
:10238000000000000000000000000000000000004D
:102390000000000000000000000000000081175055
:1023A00041524D004E660000000000000000000099
:1023B000000000004E616D652C56616C7565000073
:1023C000000000000000000000000000000000000D
:1023D00000000000000000000000000000000000FD
:1023E00000000000000000000000000000000000ED
:1023F00000000000822D47505300004249484263CC
:102400004C4C656545656649000000537461747500
:10241000732C54696D654D532C5765656B2C4E5369
:102420006174732C48446F702C4C61742C4C6E6733
:102430002C52656C416C742C416C742C5370642C60
:10244000474372732C565A2C540000831F494D5534
:1024500000004966666666666600000000000000CF
:10246000000054696D654D532C477972582C47799B
:1024700072592C4779725A2C416363582C4163631B
:10248000592C4163635A0000000000000000000066
:10249000000000000000000000000000000000003C
:1024A0000000871F494D55320049666666666666BC
:1024B00000000000000000000054696D654D532CC1
:1024C000477972582C477972592C4779725A2C41A6
:1024D0006363582C416363592C4163635A000000C5
:1024E00000000000000000000000000000000000EC
:1024F00000000000000000000084434D534700002E
:102500005A00000000000000000000000000000071
:102510004D657373616765000000000000000000F6
:1025200000000000000000000000000000000000AB
:10253000000000000000000000000000000000009B
:10254000000000000000000000000000000000008B
:1025500085175243494E004968686868686868682A
:102560000000000000000054696D654D532C436865
:10257000616E312C4368616E322C4368616E332C7E
:102580004368616E342C4368616E352C4368616E1C
:10259000362C4368616E372C4368616E380000004A
:1025A00000000000000000861752434F55004968A4
:1025B0006868686868686800000000000000546986
:1025C0006D654D532C4368616E312C4368616E32EA
:1025D0002C4368616E332C4368616E342C43686110
:1025E0006E352C4368616E362C4368616E372C4320
:1025F00068616E38000000000000000000008811D3
:102600004241524F0049666663000000000000002E
:10261000000000000054696D654D532C416C742C12
:1026200050726573732C54656D70000000000000DB
:10263000000000000000000000000000000000009A
:10264000000000000000000000000000000000008A
:10265000000000000019194154554E0042426666C0
:1026600066666600000000000000000041786973A3
:102670002C54756E65537465702C526174654D6988
:102680006E2C526174654D61782C52504761696EB1
:102690002C52444761696E2C53504761696E0000AB
:1026A0000000000000000000000000001A09415472
:1026B00044450063660000000000000000000000C8
:1026C000000000416E676C652C526174650000006B
:1026D00000000000000000000000000000000000FA
:1026E00000000000000000000000000000000000EA
:1026F00000000000000000000000000000000000DA
:10270000000000091743555252004968496868683B
:102710006600000000000000000054696D654D5324
:102720002C5468724F75742C546872496E742C5610
:102730006F6C742C437572722C5663632C437572E4
:1027400072546F74000000000000000000000000E0
:10275000000000000000000000000C144F460000C4
:1027600000686842636365650000000000000000C7
:102770000044782C44792C535175616C2C582C5999
:102780002C526F6C6C2C5069746368000000000060
:102790000000000000000000000000000000000039
:1027A0000000000000000000000000000000000029
:1027B00000052F4E54554E0049666666666666668D
:1027C000666666000000000054696D654D532C4438
:1027D000506F73582C44506F73592C506F73582C92
:1027E000506F73592C4456656C582C4456656C597F
:1027F0002C56656C582C56656C592C4441636358B3
:102800002C4441636359000004214354554E004950
:102810006868686666656363686800000000005465
:10282000696D654D532C546872496E2C416E674238
:1028300073742C5468724F75742C44416C742C4121
:102840006C742C426172416C742C4453416C742C36
:1028500053416C742C444352742C43527400000F47
:10286000194D414700004968686868686868686889
:1028700000000000000054696D654D532C4D6167E8
:10288000582C4D6167592C4D61675A2C4F6673580F
:102890002C4F6673592C4F66735A2C4D4F667358E4
:1028A0002C4D4F6673592C4D4F66735A0000000033
:1028B0000000000000001B194D41473200496868C4
:1028C0006868686868686800000000000054696D06
:1028D000654D532C4D6167582C4D6167592C4D61E6
:1028E000675A2C4F6673582C4F6673592C4F66737A
:1028F0005A2C4D4F6673582C4D4F6673592C4D4FC3
:1029000066735A000000000000000000000613502B
:102910004D000000424248484968424842000000D9
:102920000000000052656E436E742C52656E426C5E
:10293000772C4E4C6F6E2C4E4C6F6F702C4D617817
:10294000542C504D542C4932434572722C494E53ED
:102950004572722C494E41564572720000000000CB
:10296000000000000814434D44000042424242422D
:10297000654C4C000000000000000043546F742CB4
:10298000434E756D2C4349642C434F70742C507228
:102990006D312C416C742C4C61742C4C6E670000B2
:1029A0000000000000000000000000000000000027
:1029B000000000000000000000000001134154541A
:1029C00000004963636363434300000000000000AC
:1029D000000054696D654D532C446573526F6C6CE7
:1029E0002C526F6C6C2C44657350697463682C5066
:1029F000697463682C4465735961772C5961770059
:102A000000000000000000000000000000000000C6
:102A1000000003064D4F4445004D680000000000D3
:102A20000000000000000000004D6F64652C546839
:102A300072437273000000000000000000000000FC
:102A40000000000000000000000000000000000086
:102A50000000000000000000000000000000000076
:102A60000000000000000000000A0353545254000C
:102A70000000000000000000000000000000000056
:102A80000000000000000000000000000000000046
:102A90000000000000000000000000000000000036
:102AA0000000000000000000000000000000000026
:102AB0000000000000000000000000000000000016
:102AC0000D04455600000042000000000000000018
:102AD0000000000000000049640000000000000049
:102AE00000000000000000000000000000000000E6
:102AF00000000000000000000000000000000000D6
:102B000000000000000000000000000000000000C5
:102B10000000000000000014064431360000426846
:102B200000000000000000000000000000004964F8
:102B30002C56616C7565000000000000000000006C
:102B40000000000000000000000000000000000085
:102B50000000000000000000000000000000000075
:102B6000000000000000000000000000000015064A
:102B700044553136004248000000000000000000CB
:102B8000000000000049642C56616C75650000006F
:102B90000000000000000000000000000000000035
:102BA0000000000000000000000000000000000025
:102BB0000000000000000000000000000000000015
:102BC0000000000000160844333200004269000093
:102BD00000000000000000000000000049642C56C6
:102BE000616C75650000000000000000000000003E
:102BF00000000000000000000000000000000000D5
:102C000000000000000000000000000000000000C4
:102C100000000000000000000000000017084455FC
:102C200033320042490000000000000000000000B4
:102C300000000049642C56616C75650000000000BE
:102C40000000000000000000000000000000000084
:102C50000000000000000000000000000000000074
:102C60000000000000000000000000000000000064
:102C7000000000180844464C540042660000000062
:102C80000000000000000000000049642C56616C48
:102C9000756500000000000000000000000000005A
:102CA0000000000000000000000000000000000024
:102CB0000000000000000000000000000000000014
:102CC00000000000000000000000121B43414D0006
:102CD0000049484C4C65636343000000000000005D
:102CE0000047505354696D652C4750535765656BC9
:102CF0002C4C61742C4C6E672C416C742C526F6C94
:102D00006C2C50697463682C5961770000000000D6
:102D100000000000000000000000000000000000B3
:102D2000001305455252000042420000000000001E
:102D300000000000000000005375627379732C4599
:102D4000436F646500000000000000000000000008
:102D50000000000000000000000000000000000073
:102D60000000000000000000000000000000000063
:102D700000000000000000000A52656164792074C0
:102D80006F20464C5920000A507265737320454EDF
:102D900054455220332074696D657320746F20731D
:102DA0007461727420696E746572616374697665AA
:102DB0002073657475700A0045524153494E47208F
:102DC0004C4F4753004E6F2064617461666C6173B1
:102DD0006820696E736572746564000A0A496E69D9
:102DE000742041726475436F707465722056332E7F
:102DF000312E320A0A467265652052414D3A20252D
:102E0000750A008D000100424154545F4D4F4E49F8
:102E1000544F520000000000A800010042415454E9
:102E20005F564F4C545F50494E00000000A900010E
:102E300000424154545F435552525F50494E000086
:102E400000008E000400424154545F564F4C545FC2
:102E50004D554C540000008F000400424154545F13
:102E6000414D505F504552564F4C54009100030065
:102E7000424154545F43415041434954590000007A
:102E8000006C6F61645F616C6C20746F6F6B2025E8
:102E90006C7575730A00646F6E652E004669726DFD
:102EA00077617265206368616E67653A206572615B
:102EB00073696E6720454550524F4D2E2E2E0A00E5
:102EC000496E697469616C6973696E672041504D20
:102ED0002E2E2E00202025530A00436F6D6D616E4B
:102EE00064733A00496E76616C696420636F6D6D3E
:102EF000616E642C2074797065202768656C70277A
:102F000000657869740068656C700025535D200069
:102F100042616420636F6E76657273696F6E2074B0
:102F200079706520272553270A00556E6B6E6F77E1
:102F30006E20636F6E76657273696F6E20272553FE
:102F4000270A0025733A2025660A0025733A2025B2
:102F50006C640A0025733A2025640A0025733A2020
:102F600025640A00454550524F4D2066756C6C0033
:102F7000DCDFE1E3E6E8EBEDEFF2F4F7F9FCFE006D
:102F80000305080A0C0F111416181B1D20222427F4
:102F90002C76D888674F0823C1DFAE59B1B796E5C4
:102FA000E453C63A51997696E6C28426898C9B6290
:102FB000407C6FFCBC9C9F40BAA56FA590055A2A27
:102FC0005C936B6C676DC11BE0E40D47F520E6B5C3
:102FD000D0ED902E009435770080841E0000204EA6
:102FE000000000C833333333986E128341EF8D21D4
:102FF000893BE655CFFEE6DBD1844B38F77C1D904C
:10300000A4BBE4243284725E8100C9F1ECA1E53DE9
:103010006E616E00696E66004572726F723A204191
:10302000505F48414C5F4156523A3A415652416EC8
:10303000616C6F67496E206F7574206F66206368DE
:10304000616E6E656C730D0A00474F494E47204410
:103050004F574E20464F522041205245424F4F5429
:103060000D0A0050414E49433A2073636865647508
:103070006C65723A3A73797374656D5F696E6974E1
:1030800069616C697A65642063616C6C65646D6FFD
:103090007265207468616E206F6E63650050414EEA
:1030A00049433A2041565253656D6170686F7265AD
:1030B0003A3A74616B6520757365642066726F6D52
:1030C00020696E736964652074696D657220707221
:1030D0006F636573730050414E49433A2053504922
:1030E0003020777269746520636F6C6C6973696FE7
:1030F0006E0050414E49433A20535049302074727B
:10310000616E7366657220636F6C6C6973696F6E54
:103110000000002100240027002A002D0030003389
:103120000001010000040107010A0100002200253E
:103130000028002B002E00310034000201000005A1
:103140000108010B01000020002300260029002CAB
:10315000002F0032000001000003010601090105F3
:10316000050505070508080808020202020A0A0800
:103170000804040404010101010101010103030326
:103180000303030303040707070C0C0C0C0C0C0CC3
:103190000C0202020206060606060606060B0B0BCA
:1031A0000B0B0B0B0B050102102020080810204010
:1031B00010204080020102010804020101020408FB
:1031C0001020408080402010080402018004020189
:1031D00080402010080402010804020101020408D2
:1031E00010204080010204081020408040000009A7
:1031F0000A02080B0C0D0706030401000000000082
:1032000000000000000000000000000000000000BE
:1032100000000000000000000011100F000000007E
:10322000000000000000000000000000000000009E
:1032300000000000327C8900EDD968770000005959
:103240000000000000000000D69FDCA81817AA901C
:10325000437327F6B968EDF4DED409FEE61C1C843E
:10326000DDE80B992927D6DF8D210F036418EFEED7
:103270001EF0B7828200941500F37C000000140059
:10328000988F00007F6A00000000000000E7B73F51
:103290003600000000000000AF669ED0385DD36CA1
:1032A00020B9EB5D7C7C77044C80387486EDCB00D4
:1032B000000000000000000000000000000000000E
:1032C00000000000000000B1F10F86DBD0BC5416F6
:1032D000131586004E44BD7F9A15159001EA49B535
:1032E0001653A78AEA00000000000000000000005A
:1032F00000000000000000000000000000000000CE
:1033000000000000000000000000000000000000BD
:1033100000000000000000000000000000000000AD
:1033200000000000000000000000000000CC31AAF6
:103330002C532E000100454E41424C450000000038
:103340000000000000000003000000803F04015264
:1033500041444955530000000000000000000000F7
:103360000400000048430402414343454C00000070
:10337000000000000000000000080000007A440087
:10338000FF0000000000000000000000000000003E
:103390000000000000000000B56206010300010605
:1033A00001124F24505542582C34312C312C3030DE
:1033B00030332C303030312C33383430302C302A0C
:1033C00032360D0A0050414E49433A20446174613F
:1033D000466C61736820535049446576696365445F
:1033E00072697665722073656D6170686F726520B1
:1033F0006973206E756C6C0050414E49433A20440D
:10340000617461466C617368205350494465766904
:103410006365447269766572206E6F7420666F759D
:103420006E64004C6F672025752C2020202073745B
:103430006172742025752C202020656E642025750E
:103440000A000A2575206C6F67730A000A4E6F2008
:103450006C6F67730A0A004E756D50616765733A49
:1034600020257520205061676553697A653A2025CB
:10347000750A004D616E7566616374757265723AA6
:1034800020307825303278202020446576696365C5
:103490003A203078253034780A004E6F2064617409
:1034A00061666C61736820696E736572746564002F
:1034B00025750A0025752C09004446207061676552
:1034C0002C206C6F672066696C6520232C206C6F44
:1034D0006720706167653A2025752C0900464D54B8
:1034E0002C2025752C2025752C2025532C20255388
:1034F0002C2025530A002C2000257300257300255D
:103500007300252E326600252E326600252E326687
:1035100000252E326600256600256C7500256C643A
:103520000025750025640025750025640025532CB1
:103530002000554E4B4E2C2025750A0004024142B6
:10354000535F505245535300000000000000000C30
:103550000000000000040354454D5000000000002E
:10356000000000000000000008000000000001044E
:10357000414C545F4F464653455400000000000044
:103580000010000000000000FF000000000000002C
:10359000000000000000000000000000000000002B
:1035A00050414E49433A2041505F4261726F3A3A6E
:1035B0007265616420756E73756363657373667598
:1035C0006C20666F72206D6F7265207468616E206A
:1035D0003530306D7320696E2041505F4261726FEB
:1035E0003A3A63616C696272617465205B335D0DA8
:1035F0000A0050414E49433A2041505F4261726F88
:103600003A3A7265616420756E73756363657373AE
:1036100066756C20666F72206D6F726520746861CC
:103620006E203530306D7320696E2041505F4261ED
:10363000726F3A3A63616C696272617465205B32E1
:103640005D0D0A0050414E49433A2041505F4261AE
:10365000726F3A3A7265616420756E737563636563
:10366000737366756C20666F72206D6F726520745F
:1036700068616E203530306D7320696E2041505F77
:103680004261726F3A3A63616C696272617465207B
:103690005B315D0D0A0050414E49433A2041505F75
:1036A0004261726F5F4D533536313120746F6F6BED
:1036B000206D6F7265207468616E20313030306D1E
:1036C0007320746F20696E697469616C697A650032
:1036D00050414E49433A2041505F4261726F5F4D05
:1036E00053353631313A206661696C656420746FF8
:1036F0002074616B652073657269616C2073656D00
:103700006170686F726520666F7220696E697400FF
:1037100050414E49433A2041505F4261726F5F4DC4
:1037200053353631313A204E554C4C207365726911
:10373000616C206472697665720050414E49433A6B
:10374000206661696C656420746F2074616B65200C
:103750005F6932635F73656D203130302074696D4D
:10376000657320696E206120726F772C20696E204E
:1037700041505F4261726F5F4D53353631313A3A95
:103780005F7570646174650050414E49433A204151
:10379000505F4261726F5F4D53353631312064693D
:1037A00064206E6F74206765742076616C69642094
:1037B0004932432073656D617068726F65210050F6
:1037C000414E49433A206661696C656420746F20FC
:1037D00074616B65205F7370695F73656D20313054
:1037E000302074696D657320696E206120726F7777
:1037F0002C20696E2041505F4261726F5F4D5335DE
:103800003631313A3A5F7570646174650050414EEB
:1038100049433A2041505F4261726F5F4D533536E4
:10382000313120646964206E6F742067657420767E
:10383000616C6964205350492073656D61706872D2
:103840006F65210050414E49433A2041505F42612B
:10385000726F5F4D533536313120646964206E6F6D
:1038600074206765742076616C6964205350492028
:1038700064657669636520647269766572210046C5
:1038800061696C656420746F2067657420484D43DE
:10389000353834332073656D6170686F726500056B
:1038A000014F46530000000000000000000000002F
:1038B000000017000000000004024445430000001F
:1038C00000000000000000000000002300000000D5
:1038D0000001034C4541524E000000000000000072
:1038E0000000000008000000803F0104555345001F
:1038F00000000000000000000000000000270000A1
:1039000000803F01054155544F44454300000000ED
:1039100000000000000028000000803F01064D4F1D
:10392000544354000000000000000000000000A408
:10393000000000000005074D4F540000000000008B
:103940000000000000000000A500000000000108C9
:103950004F5249454E540000000000000000000096
:1039600000160000000000010945585445524E4120
:103970004C000000000000000000290000000000D2
:1039800000FF000000000000000000000000000038
:10399000000000000000000000256C642E25303778
:1039A0006C64002D0009736C6F70653A0009793AF8
:1039B00000783A0043757276653A0009736C6F704F
:1039C000653A0009793A00783A0043757276653AAB
:1039D0000009736C6F70653A0009793A00783A0013
:1039E00043757276653A0009736C6F70653A000929
:1039F000793A00783A0043757276653A0009736C3B
:103A00006F70653A0009793A00783A00437572762A
:103A1000653A0009736C6F70653A0009793A00786D
:103A20003A0043757276653A00020050524F445591
:103A300043545F49440000000000000026000000DD
:103A4000000005014143435343414C000000000086
:103A50000000000000280000000000050241434370
:103A60004F464653000000000000000000003400F4
:103A70000000000005034759524F4646530000001E
:103A80000000000000000040000000000001044DA4
:103A90005055364B5F46494C5445520000000000DB
:103AA0004C000000000000FF0000000000000000CB
:103AB00000000000000000000000000000000043C3
:103AC000616C6962726174696F6E204641494C4550
:103AD000440A0043616C6962726174696F6E20739D
:103AE00075636365737366756C0A005363616C6913
:103AF0006E675B25755D3A20252E326620252E32B5
:103B00006620252E32660A004F6666736574735B05
:103B100025755D3A20252E326620252E3266202519
:103B20002E32660A004661696C656420746F2067F6
:103B3000657420494E532073616D706C650A0050A6
:103B40006C6163652076656869636C652025532028
:103B5000616E6420707265737320616E79206B658D
:103B6000792E0A006F6E20697473204241434B0026
:103B70006E6F7365205550006E6F736520444F570C
:103B80004E006F6E20697473205249474854207369
:103B9000696465006F6E20697473204C454654203B
:103BA00073696465006C6576656C0020002A0049C5
:103BB0006E697420416363656C006779726F5B2581
:103BC000755D20646964206E6F7420636F6E766526
:103BD0007267653A20646966663D25662064707385
:103BE0000A002A00496E6974204779726F004661A5
:103BF000696C656420746F20626F6F74204D50553E
:103C00003630303020352074696D6573004D505565
:103C1000363030303A20556E61626C6520746F200A
:103C20006765742073656D6170686F7265005041DF
:103C30004E49433A2041505F496E65727469616C28
:103C400053656E736F725F4D5055363030303A3A6F
:103C50005F706F6C6C5F64617461206661696C6534
:103C60006420746F2074616B652053504920736524
:103C70006D6170686F72652073796E6368726F6EC4
:103C80006F75736C790050414E49433A2066616903
:103C90006C656420746F20626F6F74204D505536D0
:103CA00030303020352074696D6573004D505536C5
:103CB0003030302073746172747570206661696C85
:103CC00065643A206E6F206461746120726561647E
:103CD00079004D5055363030303A20556E61626C67
:103CE0006520746F206765742073656D6170686FFF
:103CF00072650054696D6564206F75742077616921
:103D000074696E6720666F722075736572207265C4
:103D100073706F6E73650004024750535F474149EB
:103D20004E00000000000000000024000000803F62
:103D300001034750535F5553450000000000000049
:103D40000000002C000000803F04045941575F50E0
:103D50000000000000000000000000001C00CDCCAE
:103D60004C3E040552505F5000000000000000006F
:103D700000000000002000CDCC4C3E010657494E0B
:103D8000445F4D41580000000000000000002D007D
:103D90000000000005085452494D000000000000DA
:103DA000000000000000003E000000000001094F7C
:103DB0005249454E544154494F4E00000000000006
:103DC0002E0000000000040A434F4D505F4245544E
:103DD0004100000000000000002800CDCCCC3D01D7
:103DE0000B4750535F4D494E534154530000000060
:103DF00000002F000000C040010C4750535F4445B5
:103E00004C4159000000000000000030000000801C
:103E10003F00FF0000000000000000000000000064
:103E2000000000000000000000000400500000003E
:103E30000000000000000000000000000000000082
:103E40000000000401490000000000000000000024
:103E50000000000000000400000000000202494DC4
:103E600041580000000000000000000000000008B1
:103E7000000000000000FF00000000000000000043
:103E8000000000000000000000000000000004002E
:103E900050000000000000000000000000000000D2
:103EA00000000000000000040149000000000000C4
:103EB00000000000000000000000040000000000FE
:103EC00004024400000000000000000000000000A8
:103ED0000000000800000000000203494D415800A6
:103EE0000000000000000000000000000C000000C6
:103EF000000000FF000000000000000000000000C3
:103F0000000000000000000000000002004D494ECB
:103F100000000000000000000000000000000A0097
:103F20000080894402015452494D00000000000005
:103F3000000000000000000C000080BB4402024DA5
:103F400041580000000000000000000000000000D8
:103F50000E000080ED4401035245560000000000B1
:103F600000000000000000000010000000803F0280
:103F700005445A000000000000000000000000009E
:103F8000000011000000000000FF00000000000021
:103F90000000000000000000000000000000000021
:103FA0000008000000000000000000000000000009
:103FB0000000000000000B3F0000010146554E4389
:103FC00054494F4E0000000000000000001D00009A
:103FD00000000000FF0000000000000000000000E2
:103FE0000000000000000000000000000101544338
:103FF00052565F454E41424C4500000000000030E3
:10400000000000803F0102544352565F4D49445026
:104010004354000000000000310000005042010342
:10402000544352565F4D4158504354000000000025
:104030000032000000BA4202055350494E5F41521F
:104040004D454400000000000000330000008C4299
:1040500000FF000000000000000000000000000061
:1040600000000000000000000041505F4D6F746FC1
:1040700072733A206661696C656420746F206372A4
:1040800065617465207468726F74746C6520637503
:1040900072766500010050494E00000000000000EB
:1040A000000000000000000000000050410101502D
:1040B000494E320000000000000000000000000037
:1040C0000100000080BF010250494E330000000093
:1040D0000000000000000000000200000080BF019E
:1040E0000350494E340000000000000000000000B2
:1040F00000000300000080BF00FF0000000000007F
:1041000000000000000000000000000000000000AF
:104110000001004D4F444500000000000000000079
:104120000000000036000000000005015245545216
:104130004143540000000000000000000047000060
:1041400000000005024E45555452414C000000004D
:104150000000000000005300000000000503434F72
:104160004E54524F4C000000000000000000005F61
:1041700000000000000104535441425F524F4C4C78
:1041800000000000000000003300000000000105F6
:10419000535441425F54494C540000000000000059
:1041A000003400000000000106535441425F5041BA
:1041B0004E0000000000000000003500000000007C
:1041C000010752435F494E5F524F4C4C00000000C4
:1041D0000000003700000000000208414E474D4932
:1041E0004E5F524F4C000000000000003A0000A05B
:1041F0008CC50209414E474D41585F524F4C00005B
:1042000000000000003C0000A08C45010A52435F02
:10421000494E5F54494C5400000000000000380033
:1042200000000000020B414E474D494E5F54494C7F
:10423000000000000000003E0000A08CC5020C4100
:104240004E474D41585F54494C00000000000000AB
:10425000400000A08C45010D52435F494E5F504124
:104260004E000000000000000039000000000002C5
:104270000E414E474D494E5F50414E000000000038
:104280000000420000A08CC5020F414E474D41582E
:104290005F50414E00000000000000440000A08C70
:1042A0004501104A535449434B5F535044000000AA
:1042B0000000000046000000000000FF00000000B9
:1042C00000000000000000000000000000000000EE
:1042D000000000040154435F585900000000000032
:1042E00000000000000014000000204004025443BD
:1042F0005F5A0000000000000000000000000065A0
:10430000000000A04000FF000000000000000000CE
:104310000000000000000000000000000000040099
:10432000535045454400000000000000000000001C
:104330000011000000FA4304015241444955530062
:10434000000000000000000000001D0000004843C5
:10435000040253504545445F5550000000000000E2
:10436000000000150000007A430403535045454403
:104370005F444E0000000000000000001900000033
:10438000164304044C4F49545F53504545440000C4
:1043900000000000000D000000FA43040541434303
:1043A000454C00000000000000000000000021005B
:1043B0000000C84200FF00000000000000000000F4
:1043C0000000000000000000000000000096918C3A
:1043D00087827D78736E69645F5A55504B46413CC5
:1043E00037322D28231E19140F0A050004090E1355
:1043F000181D22272C31363B40454A4F54595E63E5
:10440000686D72777C81868B90959A9FA4A9AEB3D4
:10441000AFAAA5A09B968F89837E78736E69645F2F
:104420005A55504B47423E3935302C27231F1B1617
:10443000120E09050103070B1014191D22262B2F3C
:1044400034393D42474C51565B60656B70757B80DB
:10445000868C92979DA3A9AFB2ACA6A09A948F82A6
:104460007C76706B65605C57524E4A46413D3936EA
:10447000322E2A26221F1B1713100C0804010206D5
:104480000A0E12161A1E22262B2F33383D41464B98
:104490004F54595E64696F747A80878D949BA2AA89
:1044A000B1AEA69F979089826F68635E5955514D52
:1044B0004946423F3C3835322E2B2824211E1A17FC
:1044C00014100D0A0603000306090D1014181C2011
:1044D00024282C3034393D41464A4F54585D626798
:1044E0006D737980878F98A2ACB0A59A90867D76FF
:1044F0006F55514D4A4744413F3C3A383533312E90
:104500002B292623201D1A1713100D0A0704010159
:104510000306090D1013171A1E22262A2E32363AC8
:104520003E42464A4E53575B5F64696E757C859088
:104530009FB2A08D7D7067605A553E3C3A39373640
:10454000343332302F2E2C2A292724221F1C1916EF
:1045500013100D0A070402000305080A0D101316B4
:104560001A1D2125292D3135383C4043464A4D50EE
:104570005356595B5E6165696F826D544D4A47447D
:1045800042403E2E2E2D2C2C2B2A2A292928272644
:10459000252423211F1C1A1714100D0A07040101DA
:1045A000030507090C0E1013161A1D2124282C30A0
:1045B00033373A3D40424447484A4A4B4A48443DD3
:1045C0003019021621282B2D2E2F2E2E06090C0F06
:1045D000121517191B1C1B1811040E2231383C3CF4
:1045E0003C3A3835322F2B2824201C1915110D097F
:1045F000050102060A0E1115181C1F222527292A5B
:104600002B2B2926211911080004080A0A0A080779
:10461000040200030616181A1C1E20211F1712512F
:104620006063625F5D5956524E4A46423E393531AB
:104630002C2824201B17130E0A060102060A0F134A
:10464000171B1F23262A2D313437393C3D3F3F3E6F
:104650003D39352F28211C17151313131416A8AD37
:10466000B2B0ABA6A19C97928D88837E79746F6A55
:1046700065605B56514C47423D38332E29241F1A42
:1046800015100B060103080D12171C21262B3035BF
:104690003A3F44494E53585D62676C71767B808522
:1046A0008A8F94999EA3A800000001FFFFE00000FC
:1046B0000000000001FFFFF000000000000001FF0B
:1046C000FFF800000000000001FFFFFE00000000F6
:1046D000000003FFFFFF00000000000003FFFFFFDA
:1046E000F000000000000FFFFFFFFE00000003FFCE
:1046F000FFFC000007FC00007FFFFFFC0000000043
:104700000000001FFFFE0000000000241E1915120B
:10471000100E0C0B0A09090908080807060605040B
:104720000404030404040000000000000000000072
:1047300027262123252325242722292A2A1C272826
:104740002B33322725222C33313037000000000074
:104750000000000000801140114071327334333288
:1047600013121132111293341314535231002103D6
:104770000406080B2D0A090705040241C011C051A7
:1047800012535473121112515273147332310021A7
:1047900002040506070809080607062403020102A9
:1047A000000120012011C0011100313213741314D3
:1047B0003312F112D3125100010223250607464499
:1047C0002342210001E0A0313213B4331112110051
:1047D00011201100523312133211200122248504BA
:1047E0002304020342410001E0A0511214131513E7
:1047F000153413325140012011521332310001227D
:1048000023040504050423010382612001E01180D3
:104810001132135415143332314021020100317228
:10482000314102234423020122012201026140019D
:10483000A0118051121413341514331231400102A7
:1048400001030201205211122021224304224102BD
:104850002102A10001E02011405153741332114094
:104860002102030203020100111211320011412240
:10487000232221004102A180016011601100113248
:104880003374131211400162030203213112111219
:10489000114001020102030201000100E121E0A038
:1048A000112012117334333120016203624012115E
:1048B000121100110100010201220001200100E19A
:1048C000C001001180110012111312141334522070
:1048D00001E2022120311211001100010021020128
:1048E000000140210002410001E06011401112115D
:1048F0001312141314133211002122034201022156
:10490000000100110012110011200100416001009E
:10491000C100014011200160114051121312131403
:104920003312310001420322010221000140110033
:10493000310011000100010001A0E10001A001808F
:10494000112031529312110021C221002140310067
:1049500011201100010001E0E16001E0110011727D
:104960007312310021420301020102202140110093
:1049700011201160014011600100010221020001BB
:1049800020014001A05132131253321120010201C3
:1049900082210021000100110031E00011001160AE
:1049A000210001020102010100212001000160112A
:1049B000001152131214135211004182010200011E
:1049C0000021401100110011A011003100112081BF
:1049D00022010100020100210001601100521312A6
:1049E000131413323101000201220142010021009F
:1049F000010001112011001120114071001140012E
:104A00000221020102010021022100010001001126
:104A1000001211123312341332112001020142012B
:104A2000220100410001601120110011001100510C
:104A300012312061020122020002010281201100D4
:104A4000121173341332110041020182010061001E
:104A50000180110011009132314021420102020017
:104A6000626140115214135433310041820122001B
:104A700001020041000160911211525120012201F6
:104A800003010202008261005133541514333100D6
:104A90002102012203424102A180319213323100EE
:104AA00041220302010300220322010201401112EC
:104AB00033953331010022010342032221220102F6
:104AC00061000111001152131253123100412203EF
:104AD00022030023020302010221203213141615BF
:104AE000171615331120016203020302032201A2EB
:104AF0004140111253141314133211010002010228
:104B000003020302020002230203222120321416B0
:104B10003718171513121100212203024302430113
:104B200003020382212011121314153415143211BB
:104B30000001622302030043020342012012131505
:104B400018193A1715131100210203026304E30236
:104B50000302030201024012131415171516341232
:104B600020212243020300A3220100111215181C68
:104B70001E1D19161311000201030203042304036E
:104B800024030443042304030203422011121415D6
:104B900017183615133121020302230203010044C2
:104BA00045425547000000000000000000000000E2
:104BB00000000000000000FF0000000000000000F6
:104BC0000000000000000000000000000000005392
:104BD00063686564756C6572206F76657272756E58
:104BE000207461736B5B25755D202825752F2575F5
:104BF000290A005363686564756C657220736C697B
:104C000070207461736B5B25755D202825752F25D9
:104C1000752F2575290A000100524F4C4C000000E9
:104C20000000000000000000000000000000803FC5
:104C300001015049544348000000000000000000FA
:104C400000000001000000004001025448524F548F
:104C5000544C45000000000000000000030000006C
:104C600040400103594157000000000000000000CF
:104C7000000000000002000000804000FF00000073
:104C80000000000000000000000000000000000024
:104C90000000000001004D4F4E49544F52000000EB
:104CA00000000000000000000000000000010156AC
:104CB0004F4C545F50494E000000000000000000BF
:104CC0000100000050410102435552525F50494ECD
:104CD000000000000000000000020000004041044D
:104CE00003564F4C545F4D554C54000000000000DB
:104CF000000003009A9921410404414D505F504542
:104D000052564F4C5400000000000007000000887D
:104D1000410405414D505F4F464653455400000045
:104D2000000000000B00000000000306434150415A
:104D3000434954590000000000000000000F00002B
:104D4000404E4500FF000000000000000000000091
:104D500000000000000000000000000000FF000054
:104D60000000000000000000000000000000000043
:104D70000000000000494E46494E4954594E414EEC
:104D8000CDCCCC3D0AD7233C17B7D13877CC2B32CA
:104D90009595E6241FB14F0A000020410000C8424B
:104DA00000401C4620BCBE4CCA1B0E5AAEC59D74AA
:104DB0000D9451150D94E9090D9433830D94280D2C
:104DC0000D94FA810D945C380D9467D90D948A0284
:104DD0000D94A28D0D9417410D940E8D0D944B934F
:104DE0000D947B0D0D9408680D94FD0A0D94C31F5E
:104DF0000D94C5670D94F7450D94B6E30D94336596
:104E00000D94A60D0D94277D0D94230D0D949804FB
:104E10000D94D4170D9435560D9426780D94940C5A
:104E20000D944A0D0D942F0F0D94F0100D94E8A6DB
:104E30000D947C4C0D9443110D946B150D945C00F6
:104E40000D94C24C0D948CAF0D9405150D94BE6D50
:104E50000D94000D0D9427170D94FA270D94FA3038
:104E60000D9479290D94C60C0D94A6460D948814C2
:104E70000D94920D0D9451400D94FEE30D94C53F99
:104E80000D940C340D949A040D9492340D9445E1D4
:104E90000D9408400D94020F0D943E3D0D94E7C112
:104EA0000D9456040D941D3E0D9489640D945C3B45
:104EB0000D944E8B0D9430160D9448870D949404E8
:104EC0000D9449280D94C2D20D946B620D94066521
:104ED0000D9428330D9497150D94566D0D94AB36A3
:104EE0000D94DFE30D94A2410D94283B0D945A4B91
:104EF0000D94A0A60D94048D0D947E0D0D94254265
:104F00000D947A450D94D6C90D94A3650D947D0F2B
:104F10000D94B7E40D9440150D944B2D0D94E8CBF2
:104F20000D9433670D9413670D94EE930D940F65F4
:104F30000D946D460D9475A00D947D150D94B40CD3
:104F40000D941C110D94590A0D946C2F0D940B3B6C
:104F50000D9437070D94C4E20D9447BF0D94C771AB
:104F60000D944A030D94370D0D94D90C0D94C76D13
:104F70000D94510D0D943AE40D94E2E20D942B0C36
:104F80000D9424220D94868C0D940C150D947304AD
:104F90000D94D0460D9426280D94EB0C0D946D675E
:104FA0000D94DBA70D94720D0D94B5CA0D94C81520
:104FB0000D94A10D0D948C8C0D9404290D9462D345
:104FC0000D9490120D94711F0D9497060D94A913D2
:104FD0000D941ADB0D941F070D949D150D94FF661B
:104FE0000D94F9070D94AA1B0D94A0080D94E31CD1
:104FF0000D944B0D0D94FB0C0D945FC20D94108B12
:105000000D943E280D94ADD70D9412470D94A7270B
:105010000D94FC130D941B600D94D30C0D94AB29CF
:105020000D943CA30D943A070D94D4230D94CD41D7
:105030000D94DB8A0D9457810D947A6E0D94C1E224
:105040000D94E3670D9444B70D9461890D9424A2E7
:105050000D94448E0D94544B0D9412A00D94BD6D7F
:105060000D946CC60D943E4C0D946C070D94E10CA0
:105070000D945F8B0D94A7640D948D0D0D94A20C6F
:105080000D94515C0D941F490D94460D0D94E470E0
:105090000D94C16D0D9441140D94CAAC0D946B32F6
:1050A0000D94E70C0D941B150D94E3640D94274C9F
:1050B0000D9476660D94D5810D94CDAF0D9413A605
:1050C0000D948E130D94CD710D94DFAF0D94D646D3
:1050D0000D9457200D94A60C0D94D6450D94E343E2
:1050E0000D947D160D944B360D940BA60D94D0ACFB
:1050F0000D94A6660D94F0740D942E510D944408F1
:105100000D94B30E0D94544D0D94EF0C0D946F1639
:105110000D9440A80D94C4160D94CE170D94E08103
:105120000D94273A0D9489470D94841E0D94022EF8
:105130000D94DE0E0D94C5B30D9406E30D94460E4A
:105140000D94BAA30D94444C0D9465150D94D6009E
:105150000D94E5E20D943B8B0D9476650D949028AB
:105160000D94923A0D94AEE20D94B40F0D941B077A
:105170000D94780C0D94EEA60D9442070D94970DA6
:105180000D94E8660D9493100D9473A60D94140677
:105190000D942D400D946C330D9480650D946866CC
:1051A0000D9432980D94EA740D944A6C0D94098D07
:1051B0000D94B2E40D9481420D9473970D94FA13FB
:1051C0000D94323C0D94C50C0D94FD450D94190DB4
:1051D0000D94E96C0D94F8410D949E670D9428513F
:1051E0000D94FC390D947E2E0D9410140D945C6D6D
:1051F0000D9476030D944EA60D940B8C0D94C9ABB3
:105200000D944A4E0D946A830D942E650D9403E31C
:105210000D942C3C0D94FD1F0D94F22D0D94B41D96
:105220000D9446410D94EEDB0D943C870D947F6CFC
:105230000D94173E0D94410D0D9477280D94211770
:105240000D94010D0D949C0D0D947C270D9453E548
:105250000D945B890D941A8D0D94D9400D9466813F
:105260000D948F6F0D948C340D94FC2D0D9418A11A
:105270000D94B6650D94A8B60D94B6140D94F18AEC
:105280000D946C910D94A8E20D9429670D941C0364
:105290000D949E470D9488980D944C3D0D94B60F37
:1052A0000D9496270D946C930D949E0C0D941A16E4
:1052B0000D9492090D94FE130D9425460D944A0EFB
:1052C0000D94B8150D9498470D94842E0D94E5B364
:1052D0000D94B90D0D9477300D949AA60D94D13993
:1052E0000D94586F0D94D6030D949A3D0D94AD1402
:1052F0000D94DA5F0D9472930D94935A0D94304788
:105300000D9480400D9418E60D94E1860D9442674B
:105310000D94400E0D9485B60D9425040D9486AD24
:105320000D94730C0D9480AD0D9424090D94E40D2F
:105330000D9498030D94981C0D9497140D94EE03FE
:105340000D94B6A50D94B30D0D9487420D944C0F9A
:105350000D94E7860D947D0C0D9408040D94B437DC
:105360000D94080B0D94CA6D0D9418470D946E0C96
:105370000D94880D0D943D040D94F5650D94A29443
:105380000D9474A50D942A640D94D6CE0D94C50E7B
:105390000D94421F0D9444110D94B00F0D94445F71
:1053A0000D945F020D9497040D94280A0D94C82B58
:1053B0000D9423350D9408030D94D60D0D94980C7F
:1053C0000D94CAA20D94F03F0D9442870D94AF1333
:1053D0000D947E4C0D9494640D946E270D94B158E9
:1053E0000D941B010D9420780D94F02E0D945D21E9
:1053F0000D946FBD0D94CF810D94C6340D9428B6D5
:105400000D94E36C0D94B9C50D94BA0E0D94B00AC9
:105410000D9446A80D94BE3C0D9412070D948C413A
:105420000D9494A10D945E8D0D9471850D94580783
:105430000D94806E0D94E9080D948A140D94BF6D3F
:105440000D943B660D94274E0D94662F0D94623B90
:105450000D94E80A0D946B110D94B20F0D94D015B4
:105460000D94F9540D94F62F0D9404150D94AC641D
:105470000D9486270D940D140D94E8830D946D31D1
:105480000D94B0140D9486AF0D943C0D0D94B75E41
:105490000D94274A0D94B51A0D94B00C0D9408275D
:1054A0000D94AC0C0D9441120D9483150D94C36DA5
:1054B0000D944A080D94620C0D9429280D946900EE
:1054C0000D9442E10D9493040D942F220D94DA89EA
:1054D0000D941D4C0D94F36D0D948C610D947C46D0
:1054E0000D944E920D94314C0D94F50C0D94444E48
:1054F0000D94AD400D9410C10D946B0C0D94ED66A0
:105500000D94F16D0D94EA810D942D870D94131B6C
:105510000D9447140D945A4D0D94B8660D9422378E
:105520000D9409E30D9487670D9448070D94362870
:105530000D947F290D94C56D0D94BC4C0D94D1AC88
:105540000D9402D70D94CF0C0D94D58A0D946F0352
:105550000D94F62E0D9422660D9430AE0D94C00C71
:105560000D94D0450D9486140D94F7420D94C927DF
:105570000D9463280D9404DD0D94EA0D0D942D0D0A
:105580000D94AC670D94D3000D9456280D94410EE4
:105590000D94AC460D9414070D9402360D94725B75
:1055A0000D9463650D9478270D94796C0D94EE2716
:1055B0000D94320D0D9412CF0D94BA030D94BA0CC4
:1055C0000D9406340D94EA100D9414460D94F56D67
:1055D0000D94658B0D94A0C10D9494200D94180723
:1055E0000D94CB150D94BACD0D94D5640D94520B3A
:1055F0000D946CB80D94DD0C0D941F610D94830D0A
:105600000D9436950D94ABAB0D94E0590D94F6E3E3
:105610000D94B43F0D943FE40D9494130D94896F51
:105620000D948C6B0D94E8650D9491E10D94526589
:105630000D940E270D9455670D9449160D94B63FA1
:105640000D94250A0D9465020D941D350D94838AE1
:105650000D94CA0E0D9415530D94E0890D9410AF5E
:105660000D94F8130D94AB0D0D9480280D94E3E385
:105670000D9404390D9472330D9480190D9433E117
:105680000D941E0D0D94B02D0D9408360D94E2204E
:105690000D94E5190D9441470D94DEA60D948B0CE5
:1056A0000D94830F0D94058C0D94DF230D94DDBDB7
:1056B0000D94E0000D94E5AF0D942D7D0D94EA70EE
:1056C0000D942B200D9443530D9413148160E42703
:1056D000A6293A2AF4287629722A11241FBECFEF70
:1056E000D1E2DEBFCDBF00E00CBF16E0A0E0B2E02B
:1056F000ECE2F8ED03E00BBF02C007900D92AE356F
:10570000B107D9F71BBE17E1AEE5B6E001C01D92A7
:10571000A53BB107E1F716E5CAEDD6E504C022972F
:10572000FE010F94FDEBCC3CD107C9F70E946CE25F
:105730000D9414EC0C940000A0E3B0E0E2EAFBE26C
:105740000D94C4EBA8E04E010894811C911CF40157
:10575000BA2F1192BA95E9F729833A834B835C8378
:105760006D837E838F839887CE010996FC01119209
:10577000AA95E9F7A986BA86CB86DC86ED86FE86F1
:105780000F87188B29813A814B815C812DA73EA719
:105790004FA758AB79018A018FEF9FEFA0E0B0E0EF
:1057A000E822F9220A231B231A01442455242985BF
:1057B0003A854B855C8529A73AA74BA75CA7590179
:1057C0006A01A822B922CA22DB223A01882499243C
:1057D000C601B501A80197010F9435EB6DA37EA317
:1057E0008FA398A7C401B3010F9435EB69A37AA3E3
:1057F0008BA39CA3C601B501A20191010F9435EBC7
:105800007B018C01C401B3010F9435EB5B016C018A
:1058100089A19AA1ABA1BCA18E0D9F1DA01FB11F94
:1058200089A39AA3ABA3BCA32DA13EA14FA158A5C8
:10583000CA01AA27BB2729A13AA14BA15CA1280F25
:10584000391F4A1F5B1F29A33AA34BA35CA32E1544
:105850003F054007510740F480E090E0A1E0B0E050
:10586000A80EB91ECA1EDB1E89A19AA1ABA1BCA1BC
:105870009D01442755272A0D3B1D4C1D5D1D2D8F75
:105880003E8F4F8F58A36C01BB24AA248DA19EA1EB
:10589000AFA1B8A5A070B070A80EB91ECA1EDB1EBD
:1058A000A98EBA8ECB8EDC8E9A8C8B8C7C8C9E8D46
:1058B0006F8D78A1FE01719688E0DF011D928A95B7
:1058C000E9F72D8B9E8B6F8B788F2D853E854F85CD
:1058D00058896DA57EA58FA598A90F9435EB7B01FE
:1058E0008C012D813E814F81588569A57AA58BA5B4
:1058F0009CA50F9435EBE60EF71E081F191F6D8946
:105900007E898F89988D6E0D7F1D801F911F6D8BF5
:105910007E8B8F8B988FEE892A2D392D482D572D10
:105920007E2F8F89988DE096E2E10D94E0EBEF9267
:10593000FF920F93DF93CF93CDB7DEB760970FB68B
:10594000F894DEBF0FBECDBFA82F002309F461C0BD
:105950007E010894E11CF11C88E0F70111928A9500
:10596000E9F729833A834B835C836D837E83AF831E
:10597000988780E2801BE82FFF27E7FDF0954D8197
:105980005E816F817885181684F01D861E861F86BD
:10599000188A882799278E1B9F0B04C076956795D8
:1059A000579547958A95D2F728C0202F332727FD92
:1059B0003095DB01CA01022E04C0B695A7959795D4
:1059C00087950A94D2F78D879E87AF87B88B04C0DE
:1059D000440F551F661F771FEA95D2F789819A8178
:1059E000AB81BC8104C0B695A795979587952A95FC
:1059F000D2F7482B592B6A2B7B2B49875A876B8709
:105A00007C8729853A854B855C856D857E85AF854C
:105A100098898A2F60960FB6F894DEBF0FBECDBF6F
:105A2000CF91DF910F91FF90EF900895EF92FF9249
:105A30000F93DF93CF93CDB7DEB760970FB6F8948F
:105A4000DEBF0FBECDBFA82F002309F461C07E01C9
:105A50000894E11CF11C88E0F70111928A95E9F79E
:105A600029833A834B835C836D837E83AF839887DE
:105A700080E2801BE82FFF27E7FDF09549815A81DE
:105A80006B817C81181684F019861A861B861C8609
:105A9000882799278E1B9F0B04C0440F551F661F34
:105AA000771F8A95D2F728C0202F332727FD3095FE
:105AB000DB01CA01022E04C0880F991FAA1FBB1F59
:105AC0000A94D2F789879A87AB87BC8704C07695FA
:105AD000679557954795EA95D2F78D819E81AF815D
